{
  "_format": "hh-sol-artifact-1",
  "contractName": "ERC20MinerReward",
  "sourceName": "contracts/ERC20MinerReward.sol",
  "abi": [
    {
      "inputs": [],
      "stateMutability": "nonpayable",
      "type": "constructor"
    },
    {
      "inputs": [
        {
          "internalType": "address",
          "name": "spender",
          "type": "address"
        },
        {
          "internalType": "uint256",
          "name": "allowance",
          "type": "uint256"
        },
        {
          "internalType": "uint256",
          "name": "needed",
          "type": "uint256"
        }
      ],
      "name": "ERC20InsufficientAllowance",
      "type": "error"
    },
    {
      "inputs": [
        {
          "internalType": "address",
          "name": "sender",
          "type": "address"
        },
        {
          "internalType": "uint256",
          "name": "balance",
          "type": "uint256"
        },
        {
          "internalType": "uint256",
          "name": "needed",
          "type": "uint256"
        }
      ],
      "name": "ERC20InsufficientBalance",
      "type": "error"
    },
    {
      "inputs": [
        {
          "internalType": "address",
          "name": "approver",
          "type": "address"
        }
      ],
      "name": "ERC20InvalidApprover",
      "type": "error"
    },
    {
      "inputs": [
        {
          "internalType": "address",
          "name": "receiver",
          "type": "address"
        }
      ],
      "name": "ERC20InvalidReceiver",
      "type": "error"
    },
    {
      "inputs": [
        {
          "internalType": "address",
          "name": "sender",
          "type": "address"
        }
      ],
      "name": "ERC20InvalidSender",
      "type": "error"
    },
    {
      "inputs": [
        {
          "internalType": "address",
          "name": "spender",
          "type": "address"
        }
      ],
      "name": "ERC20InvalidSpender",
      "type": "error"
    },
    {
      "anonymous": false,
      "inputs": [
        {
          "indexed": true,
          "internalType": "address",
          "name": "owner",
          "type": "address"
        },
        {
          "indexed": true,
          "internalType": "address",
          "name": "spender",
          "type": "address"
        },
        {
          "indexed": false,
          "internalType": "uint256",
          "name": "value",
          "type": "uint256"
        }
      ],
      "name": "Approval",
      "type": "event"
    },
    {
      "anonymous": false,
      "inputs": [
        {
          "indexed": false,
          "internalType": "string",
          "name": "description",
          "type": "string"
        },
        {
          "indexed": true,
          "internalType": "address",
          "name": "_from",
          "type": "address"
        },
        {
          "indexed": false,
          "internalType": "uint256",
          "name": "_n",
          "type": "uint256"
        }
      ],
      "name": "LogNewAlert",
      "type": "event"
    },
    {
      "anonymous": false,
      "inputs": [
        {
          "indexed": true,
          "internalType": "address",
          "name": "from",
          "type": "address"
        },
        {
          "indexed": true,
          "internalType": "address",
          "name": "to",
          "type": "address"
        },
        {
          "indexed": false,
          "internalType": "uint256",
          "name": "value",
          "type": "uint256"
        }
      ],
      "name": "Transfer",
      "type": "event"
    },
    {
      "inputs": [],
      "name": "_reward",
      "outputs": [],
      "stateMutability": "nonpayable",
      "type": "function"
    },
    {
      "inputs": [
        {
          "internalType": "address",
          "name": "owner",
          "type": "address"
        },
        {
          "internalType": "address",
          "name": "spender",
          "type": "address"
        }
      ],
      "name": "allowance",
      "outputs": [
        {
          "internalType": "uint256",
          "name": "",
          "type": "uint256"
        }
      ],
      "stateMutability": "view",
      "type": "function"
    },
    {
      "inputs": [
        {
          "internalType": "address",
          "name": "spender",
          "type": "address"
        },
        {
          "internalType": "uint256",
          "name": "value",
          "type": "uint256"
        }
      ],
      "name": "approve",
      "outputs": [
        {
          "internalType": "bool",
          "name": "",
          "type": "bool"
        }
      ],
      "stateMutability": "nonpayable",
      "type": "function"
    },
    {
      "inputs": [
        {
          "internalType": "address",
          "name": "account",
          "type": "address"
        }
      ],
      "name": "balanceOf",
      "outputs": [
        {
          "internalType": "uint256",
          "name": "",
          "type": "uint256"
        }
      ],
      "stateMutability": "view",
      "type": "function"
    },
    {
      "inputs": [],
      "name": "decimals",
      "outputs": [
        {
          "internalType": "uint8",
          "name": "",
          "type": "uint8"
        }
      ],
      "stateMutability": "view",
      "type": "function"
    },
    {
      "inputs": [],
      "name": "name",
      "outputs": [
        {
          "internalType": "string",
          "name": "",
          "type": "string"
        }
      ],
      "stateMutability": "view",
      "type": "function"
    },
    {
      "inputs": [],
      "name": "symbol",
      "outputs": [
        {
          "internalType": "string",
          "name": "",
          "type": "string"
        }
      ],
      "stateMutability": "view",
      "type": "function"
    },
    {
      "inputs": [],
      "name": "totalSupply",
      "outputs": [
        {
          "internalType": "uint256",
          "name": "",
          "type": "uint256"
        }
      ],
      "stateMutability": "view",
      "type": "function"
    },
    {
      "inputs": [
        {
          "internalType": "address",
          "name": "to",
          "type": "address"
        },
        {
          "internalType": "uint256",
          "name": "value",
          "type": "uint256"
        }
      ],
      "name": "transfer",
      "outputs": [
        {
          "internalType": "bool",
          "name": "",
          "type": "bool"
        }
      ],
      "stateMutability": "nonpayable",
      "type": "function"
    },
    {
      "inputs": [
        {
          "internalType": "address",
          "name": "from",
          "type": "address"
        },
        {
          "internalType": "address",
          "name": "to",
          "type": "address"
        },
        {
          "internalType": "uint256",
          "name": "value",
          "type": "uint256"
        }
      ],
      "name": "transferFrom",
      "outputs": [
        {
          "internalType": "bool",
          "name": "",
          "type": "bool"
        }
      ],
      "stateMutability": "nonpayable",
      "type": "function"
    }
  ],
  "bytecode": "0x60806040523480156200001157600080fd5b506040518060400160405280600b81526020017f4d696e65725265776172640000000000000000000000000000000000000000008152506040518060400160405280600381526020017f4d5257000000000000000000000000000000000000000000000000000000000081525081600390816200008f919062000324565b508060049081620000a1919062000324565b5050506200040b565b600081519050919050565b7f4e487b7100000000000000000000000000000000000000000000000000000000600052604160045260246000fd5b7f4e487b7100000000000000000000000000000000000000000000000000000000600052602260045260246000fd5b600060028204905060018216806200012c57607f821691505b602082108103620001425762000141620000e4565b5b50919050565b60008190508160005260206000209050919050565b60006020601f8301049050919050565b600082821b905092915050565b600060088302620001ac7fffffffffffffffffffffffffffffffffffffffffffffffffffffffffffffffff826200016d565b620001b886836200016d565b95508019841693508086168417925050509392505050565b6000819050919050565b6000819050919050565b600062000205620001ff620001f984620001d0565b620001da565b620001d0565b9050919050565b6000819050919050565b6200022183620001e4565b6200023962000230826200020c565b8484546200017a565b825550505050565b600090565b6200025062000241565b6200025d81848462000216565b505050565b5b8181101562000285576200027960008262000246565b60018101905062000263565b5050565b601f821115620002d4576200029e8162000148565b620002a9846200015d565b81016020851015620002b9578190505b620002d1620002c8856200015d565b83018262000262565b50505b505050565b600082821c905092915050565b6000620002f960001984600802620002d9565b1980831691505092915050565b6000620003148383620002e6565b9150826002028217905092915050565b6200032f82620000aa565b67ffffffffffffffff8111156200034b576200034a620000b5565b5b62000357825462000113565b6200036482828562000289565b600060209050601f8311600181146200039c576000841562000387578287015190505b62000393858262000306565b86555062000403565b601f198416620003ac8662000148565b60005b82811015620003d657848901518255600182019150602085019450602081019050620003af565b86831015620003f65784890151620003f2601f891682620002e6565b8355505b6001600288020188555050505b505050505050565b610fc1806200041b6000396000f3fe608060405234801561001057600080fd5b506004361061009e5760003560e01c8063313ce56711610066578063313ce5671461014957806370a082311461016757806395d89b4114610197578063a9059cbb146101b5578063dd62ed3e146101e55761009e565b806306fdde03146100a3578063095ea7b3146100c157806318160ddd146100f15780631be0717f1461010f57806323b872dd14610119575b600080fd5b6100ab610215565b6040516100b89190610b9b565b60405180910390f35b6100db60048036038101906100d69190610c56565b6102a7565b6040516100e89190610cb1565b60405180910390f35b6100f96102ca565b6040516101069190610cdb565b60405180910390f35b6101176102d4565b005b610133600480360381019061012e9190610cf6565b61032f565b6040516101409190610cb1565b60405180910390f35b61015161035e565b60405161015e9190610d65565b60405180910390f35b610181600480360381019061017c9190610d80565b610367565b60405161018e9190610cdb565b60405180910390f35b61019f6103af565b6040516101ac9190610b9b565b60405180910390f35b6101cf60048036038101906101ca9190610c56565b610441565b6040516101dc9190610cb1565b60405180910390f35b6101ff60048036038101906101fa9190610dad565b610464565b60405161020c9190610cdb565b60405180910390f35b60606003805461022490610e1c565b80601f016020809104026020016040519081016040528092919081815260200182805461025090610e1c565b801561029d5780601f106102725761010080835404028352916020019161029d565b820191906000526020600020905b81548152906001019060200180831161028057829003601f168201915b5050505050905090565b6000806102b26104eb565b90506102bf8185856104f3565b600191505092915050565b6000600254905090565b6102df416014610505565b4173ffffffffffffffffffffffffffffffffffffffff167f773a356cf0813bd1ca65bdc565502f1d0bbe0bdb956cb13da59a9a437e2bd012436040516103259190610e99565b60405180910390a2565b60008061033a6104eb565b9050610347858285610587565b61035285858561061b565b60019150509392505050565b60006012905090565b60008060008373ffffffffffffffffffffffffffffffffffffffff1673ffffffffffffffffffffffffffffffffffffffff168152602001908152602001600020549050919050565b6060600480546103be90610e1c565b80601f01602080910402602001604051908101604052809291908181526020018280546103ea90610e1c565b80156104375780601f1061040c57610100808354040283529160200191610437565b820191906000526020600020905b81548152906001019060200180831161041a57829003601f168201915b5050505050905090565b60008061044c6104eb565b905061045981858561061b565b600191505092915050565b6000600160008473ffffffffffffffffffffffffffffffffffffffff1673ffffffffffffffffffffffffffffffffffffffff16815260200190815260200160002060008373ffffffffffffffffffffffffffffffffffffffff1673ffffffffffffffffffffffffffffffffffffffff16815260200190815260200160002054905092915050565b600033905090565b610500838383600161070f565b505050565b600073ffffffffffffffffffffffffffffffffffffffff168273ffffffffffffffffffffffffffffffffffffffff16036105775760006040517fec442f0500000000000000000000000000000000000000000000000000000000815260040161056e9190610ed6565b60405180910390fd5b610583600083836108e6565b5050565b60006105938484610464565b90507fffffffffffffffffffffffffffffffffffffffffffffffffffffffffffffffff81146106155781811015610605578281836040517ffb8f41b20000000000000000000000000000000000000000000000000000000081526004016105fc93929190610ef1565b60405180910390fd5b6106148484848403600061070f565b5b50505050565b600073ffffffffffffffffffffffffffffffffffffffff168373ffffffffffffffffffffffffffffffffffffffff160361068d5760006040517f96c6fd1e0000000000000000000000000000000000000000000000000000000081526004016106849190610ed6565b60405180910390fd5b600073ffffffffffffffffffffffffffffffffffffffff168273ffffffffffffffffffffffffffffffffffffffff16036106ff5760006040517fec442f050000000000000000000000000000000000000000000000000000000081526004016106f69190610ed6565b60405180910390fd5b61070a8383836108e6565b505050565b600073ffffffffffffffffffffffffffffffffffffffff168473ffffffffffffffffffffffffffffffffffffffff16036107815760006040517fe602df050000000000000000000000000000000000000000000000000000000081526004016107789190610ed6565b60405180910390fd5b600073ffffffffffffffffffffffffffffffffffffffff168373ffffffffffffffffffffffffffffffffffffffff16036107f35760006040517f94280d620000000000000000000000000000000000000000000000000000000081526004016107ea9190610ed6565b60405180910390fd5b81600160008673ffffffffffffffffffffffffffffffffffffffff1673ffffffffffffffffffffffffffffffffffffffff16815260200190815260200160002060008573ffffffffffffffffffffffffffffffffffffffff1673ffffffffffffffffffffffffffffffffffffffff1681526020019081526020016000208190555080156108e0578273ffffffffffffffffffffffffffffffffffffffff168473ffffffffffffffffffffffffffffffffffffffff167f8c5be1e5ebec7d5bd14f71427d1e84f3dd0314c0f7b2291e5b200ac8c7c3b925846040516108d79190610cdb565b60405180910390a35b50505050565b600073ffffffffffffffffffffffffffffffffffffffff168373ffffffffffffffffffffffffffffffffffffffff160361093857806002600082825461092c9190610f57565b92505081905550610a0b565b60008060008573ffffffffffffffffffffffffffffffffffffffff1673ffffffffffffffffffffffffffffffffffffffff168152602001908152602001600020549050818110156109c4578381836040517fe450d38c0000000000000000000000000000000000000000000000000000000081526004016109bb93929190610ef1565b60405180910390fd5b8181036000808673ffffffffffffffffffffffffffffffffffffffff1673ffffffffffffffffffffffffffffffffffffffff16815260200190815260200160002081905550505b600073ffffffffffffffffffffffffffffffffffffffff168273ffffffffffffffffffffffffffffffffffffffff1603610a545780600260008282540392505081905550610aa1565b806000808473ffffffffffffffffffffffffffffffffffffffff1673ffffffffffffffffffffffffffffffffffffffff168152602001908152602001600020600082825401925050819055505b8173ffffffffffffffffffffffffffffffffffffffff168373ffffffffffffffffffffffffffffffffffffffff167fddf252ad1be2c89b69c2b068fc378daa952ba7f163c4a11628f55a4df523b3ef83604051610afe9190610cdb565b60405180910390a3505050565b600081519050919050565b600082825260208201905092915050565b60005b83811015610b45578082015181840152602081019050610b2a565b60008484015250505050565b6000601f19601f8301169050919050565b6000610b6d82610b0b565b610b778185610b16565b9350610b87818560208601610b27565b610b9081610b51565b840191505092915050565b60006020820190508181036000830152610bb58184610b62565b905092915050565b600080fd5b600073ffffffffffffffffffffffffffffffffffffffff82169050919050565b6000610bed82610bc2565b9050919050565b610bfd81610be2565b8114610c0857600080fd5b50565b600081359050610c1a81610bf4565b92915050565b6000819050919050565b610c3381610c20565b8114610c3e57600080fd5b50565b600081359050610c5081610c2a565b92915050565b60008060408385031215610c6d57610c6c610bbd565b5b6000610c7b85828601610c0b565b9250506020610c8c85828601610c41565b9150509250929050565b60008115159050919050565b610cab81610c96565b82525050565b6000602082019050610cc66000830184610ca2565b92915050565b610cd581610c20565b82525050565b6000602082019050610cf06000830184610ccc565b92915050565b600080600060608486031215610d0f57610d0e610bbd565b5b6000610d1d86828701610c0b565b9350506020610d2e86828701610c0b565b9250506040610d3f86828701610c41565b9150509250925092565b600060ff82169050919050565b610d5f81610d49565b82525050565b6000602082019050610d7a6000830184610d56565b92915050565b600060208284031215610d9657610d95610bbd565b5b6000610da484828501610c0b565b91505092915050565b60008060408385031215610dc457610dc3610bbd565b5b6000610dd285828601610c0b565b9250506020610de385828601610c0b565b9150509250929050565b7f4e487b7100000000000000000000000000000000000000000000000000000000600052602260045260246000fd5b60006002820490506001821680610e3457607f821691505b602082108103610e4757610e46610ded565b5b50919050565b7f5f72657761726465640000000000000000000000000000000000000000000000600082015250565b6000610e83600983610b16565b9150610e8e82610e4d565b602082019050919050565b60006040820190508181036000830152610eb281610e76565b9050610ec16020830184610ccc565b92915050565b610ed081610be2565b82525050565b6000602082019050610eeb6000830184610ec7565b92915050565b6000606082019050610f066000830186610ec7565b610f136020830185610ccc565b610f206040830184610ccc565b949350505050565b7f4e487b7100000000000000000000000000000000000000000000000000000000600052601160045260246000fd5b6000610f6282610c20565b9150610f6d83610c20565b9250828201905080821115610f8557610f84610f28565b5b9291505056fea2646970667358221220df9ba663fa44da4c025ead84aa7bb473e682a21eefa498dfebbb4499710b826e64736f6c63430008180033",
  "linkReferences": {},
  "deployedLinkReferences": {}
}